{
  "transactions": [
    {
      "hash": "0xff9b2566fad15c8695ad5e7f6b5bca536b21ff3f0bd604657a3043bb6850e3d8",
      "transactionType": "CALL",
      "contractName": null,
      "contractAddress": "0x7784ff80c9d58686956428352734a8a28637b84c",
      "function": "setUniswapPair(address)",
      "arguments": [
        "0x7be0555D5E4FD0fb03cde50cA86aAcFD4B1Da947"
      ],
      "transaction": {
        "from": "0x9c9bfa9207560e726bdf3577a5059dc3ddd05c94",
        "to": "0x7784ff80c9d58686956428352734a8a28637b84c",
        "gas": "0x9fe7",
        "value": "0x0",
        "input": "0xd5aed6bf0000000000000000000000007be0555d5e4fd0fb03cde50ca86aacfd4b1da947",
        "nonce": "0xd0",
        "chainId": "0xaa36a7"
      },
      "additionalContracts": [],
      "isFixedGasLimit": false
    },
    {
      "hash": "0xde8ff6451397d87f44ef24ece640c1e632e574c3ec37de20edd421be15b39029",
      "transactionType": "CALL",
      "contractName": null,
      "contractAddress": "0x7784ff80c9d58686956428352734a8a28637b84c",
      "function": "setBuybackPool(address)",
      "arguments": [
        "0x17bD6cCB9d98974eDE38311fC2930e88cC84C005"
      ],
      "transaction": {
        "from": "0x9c9bfa9207560e726bdf3577a5059dc3ddd05c94",
        "to": "0x7784ff80c9d58686956428352734a8a28637b84c",
        "gas": "0xfb74",
        "value": "0x0",
        "input": "0xa6f2789600000000000000000000000017bd6ccb9d98974ede38311fc2930e88cc84c005",
        "nonce": "0xd1",
        "chainId": "0xaa36a7"
      },
      "additionalContracts": [],
      "isFixedGasLimit": false
    },
    {
      "hash": "0xc36640d8c6df739d565206fd1ceb1eb7c549012094a6708e204faee833bf856b",
      "transactionType": "CALL",
      "contractName": null,
      "contractAddress": "0x7784ff80c9d58686956428352734a8a28637b84c",
      "function": "setLotteryPool(address)",
      "arguments": [
        "0x92E86e35CB294D6E472E5095C11fb77bA9b2BD2b"
      ],
      "transaction": {
        "from": "0x9c9bfa9207560e726bdf3577a5059dc3ddd05c94",
        "to": "0x7784ff80c9d58686956428352734a8a28637b84c",
        "gas": "0xfafb",
        "value": "0x0",
        "input": "0x99abf7dd00000000000000000000000092e86e35cb294d6e472e5095c11fb77ba9b2bd2b",
        "nonce": "0xd2",
        "chainId": "0xaa36a7"
      },
      "additionalContracts": [],
      "isFixedGasLimit": false
    },
    {
      "hash": "0x8c2f1741ecb8a985d99ed44e8a606a8a9f8ccddb1041e884b2ffd61ef22bbc13",
      "transactionType": "CALL",
      "contractName": null,
      "contractAddress": "0x7784ff80c9d58686956428352734a8a28637b84c",
      "function": "setExcluded(address,bool)",
      "arguments": [
        "0x17bD6cCB9d98974eDE38311fC2930e88cC84C005",
        "true"
      ],
      "transaction": {
        "from": "0x9c9bfa9207560e726bdf3577a5059dc3ddd05c94",
        "to": "0x7784ff80c9d58686956428352734a8a28637b84c",
        "gas": "0xf9d1",
        "value": "0x0",
        "input": "0x2836be2400000000000000000000000017bd6ccb9d98974ede38311fc2930e88cc84c0050000000000000000000000000000000000000000000000000000000000000001",
        "nonce": "0xd3",
        "chainId": "0xaa36a7"
      },
      "additionalContracts": [],
      "isFixedGasLimit": false
    },
    {
      "hash": "0xaf52fb754d70302af308ef79e9ad5b3a93b1cea501329bd1717cef06f98d116d",
      "transactionType": "CALL",
      "contractName": null,
      "contractAddress": "0x7784ff80c9d58686956428352734a8a28637b84c",
      "function": "setExcluded(address,bool)",
      "arguments": [
        "0x92E86e35CB294D6E472E5095C11fb77bA9b2BD2b",
        "true"
      ],
      "transaction": {
        "from": "0x9c9bfa9207560e726bdf3577a5059dc3ddd05c94",
        "to": "0x7784ff80c9d58686956428352734a8a28637b84c",
        "gas": "0xf9d1",
        "value": "0x0",
        "input": "0x2836be2400000000000000000000000092e86e35cb294d6e472e5095c11fb77ba9b2bd2b0000000000000000000000000000000000000000000000000000000000000001",
        "nonce": "0xd4",
        "chainId": "0xaa36a7"
      },
      "additionalContracts": [],
      "isFixedGasLimit": false
    },
    {
      "hash": "0x83e76607eebbf46921e132f2e3bba2d3f92a1310fc88a90a75292a4d0576726f",
      "transactionType": "CALL",
      "contractName": null,
      "contractAddress": "0x7784ff80c9d58686956428352734a8a28637b84c",
      "function": "setExcluded(address,bool)",
      "arguments": [
        "0xC532a74256D3Db42D0Bf7a0400fEFDbad7694008",
        "true"
      ],
      "transaction": {
        "from": "0x9c9bfa9207560e726bdf3577a5059dc3ddd05c94",
        "to": "0x7784ff80c9d58686956428352734a8a28637b84c",
        "gas": "0x10872",
        "value": "0x0",
        "input": "0x2836be24000000000000000000000000c532a74256d3db42d0bf7a0400fefdbad76940080000000000000000000000000000000000000000000000000000000000000001",
        "nonce": "0xd5",
        "chainId": "0xaa36a7"
      },
      "additionalContracts": [],
      "isFixedGasLimit": false
    },
    {
      "hash": "0x4075dbfb261752b028d4abaa78446cf08ec84a28b347c517f4632f4c5c2a77fd",
      "transactionType": "CALL",
      "contractName": null,
      "contractAddress": "0x7784ff80c9d58686956428352734a8a28637b84c",
      "function": "setExcluded(address,bool)",
      "arguments": [
        "0x7be0555D5E4FD0fb03cde50cA86aAcFD4B1Da947",
        "true"
      ],
      "transaction": {
        "from": "0x9c9bfa9207560e726bdf3577a5059dc3ddd05c94",
        "to": "0x7784ff80c9d58686956428352734a8a28637b84c",
        "gas": "0xf9d1",
        "value": "0x0",
        "input": "0x2836be240000000000000000000000007be0555d5e4fd0fb03cde50ca86aacfd4b1da9470000000000000000000000000000000000000000000000000000000000000001",
        "nonce": "0xd6",
        "chainId": "0xaa36a7"
      },
      "additionalContracts": [],
      "isFixedGasLimit": false
    }
  ],
  "receipts": [
    {
      "status": "0x1",
      "cumulativeGasUsed": "0x1151073",
      "logs": [],
      "logsBloom": "0x00000000000000000000000000000000000000000000000000000000000000000000000000000000000000000000000000000000000000000000000000000000000000000000000000000000000000000000000000000000000000000000000000000000000000000000000000000000000000000000000000000000000000000000000000000000000000000000000000000000000000000000000000000000000000000000000000000000000000000000000000000000000000000000000000000000000000000000000000000000000000000000000000000000000000000000000000000000000000000000000000000000000000000000000000000000",
      "type": "0x2",
      "transactionHash": "0xff9b2566fad15c8695ad5e7f6b5bca536b21ff3f0bd604657a3043bb6850e3d8",
      "transactionIndex": "0x5e",
      "blockHash": "0x84a3ffd1d5a42537ba6040eec73c5e56797db0fa208cafe28becd049985fd1d3",
      "blockNumber": "0x94dae5",
      "gasUsed": "0x73c5",
      "effectiveGasPrice": "0xf4248",
      "from": "0x9c9bfa9207560e726bdf3577a5059dc3ddd05c94",
      "to": "0x7784ff80c9d58686956428352734a8a28637b84c",
      "contractAddress": null
    },
    {
      "status": "0x1",
      "cumulativeGasUsed": "0x115c680",
      "logs": [],
      "logsBloom": "0x00000000000000000000000000000000000000000000000000000000000000000000000000000000000000000000000000000000000000000000000000000000000000000000000000000000000000000000000000000000000000000000000000000000000000000000000000000000000000000000000000000000000000000000000000000000000000000000000000000000000000000000000000000000000000000000000000000000000000000000000000000000000000000000000000000000000000000000000000000000000000000000000000000000000000000000000000000000000000000000000000000000000000000000000000000000",
      "type": "0x2",
      "transactionHash": "0xde8ff6451397d87f44ef24ece640c1e632e574c3ec37de20edd421be15b39029",
      "transactionIndex": "0x5f",
      "blockHash": "0x84a3ffd1d5a42537ba6040eec73c5e56797db0fa208cafe28becd049985fd1d3",
      "blockNumber": "0x94dae5",
      "gasUsed": "0xb60d",
      "effectiveGasPrice": "0xf4248",
      "from": "0x9c9bfa9207560e726bdf3577a5059dc3ddd05c94",
      "to": "0x7784ff80c9d58686956428352734a8a28637b84c",
      "contractAddress": null
    },
    {
      "status": "0x1",
      "cumulativeGasUsed": "0x1167c35",
      "logs": [],
      "logsBloom": "0x00000000000000000000000000000000000000000000000000000000000000000000000000000000000000000000000000000000000000000000000000000000000000000000000000000000000000000000000000000000000000000000000000000000000000000000000000000000000000000000000000000000000000000000000000000000000000000000000000000000000000000000000000000000000000000000000000000000000000000000000000000000000000000000000000000000000000000000000000000000000000000000000000000000000000000000000000000000000000000000000000000000000000000000000000000000",
      "type": "0x2",
      "transactionHash": "0xc36640d8c6df739d565206fd1ceb1eb7c549012094a6708e204faee833bf856b",
      "transactionIndex": "0x60",
      "blockHash": "0x84a3ffd1d5a42537ba6040eec73c5e56797db0fa208cafe28becd049985fd1d3",
      "blockNumber": "0x94dae5",
      "gasUsed": "0xb5b5",
      "effectiveGasPrice": "0xf4248",
      "from": "0x9c9bfa9207560e726bdf3577a5059dc3ddd05c94",
      "to": "0x7784ff80c9d58686956428352734a8a28637b84c",
      "contractAddress": null
    },
    {
      "status": "0x1",
      "cumulativeGasUsed": "0x1173113",
      "logs": [],
      "logsBloom": "0x00000000000000000000000000000000000000000000000000000000000000000000000000000000000000000000000000000000000000000000000000000000000000000000000000000000000000000000000000000000000000000000000000000000000000000000000000000000000000000000000000000000000000000000000000000000000000000000000000000000000000000000000000000000000000000000000000000000000000000000000000000000000000000000000000000000000000000000000000000000000000000000000000000000000000000000000000000000000000000000000000000000000000000000000000000000",
      "type": "0x2",
      "transactionHash": "0x8c2f1741ecb8a985d99ed44e8a606a8a9f8ccddb1041e884b2ffd61ef22bbc13",
      "transactionIndex": "0x61",
      "blockHash": "0x84a3ffd1d5a42537ba6040eec73c5e56797db0fa208cafe28becd049985fd1d3",
      "blockNumber": "0x94dae5",
      "gasUsed": "0xb4de",
      "effectiveGasPrice": "0xf4248",
      "from": "0x9c9bfa9207560e726bdf3577a5059dc3ddd05c94",
      "to": "0x7784ff80c9d58686956428352734a8a28637b84c",
      "contractAddress": null
    },
    {
      "status": "0x1",
      "cumulativeGasUsed": "0x117e5f1",
      "logs": [],
      "logsBloom": "0x00000000000000000000000000000000000000000000000000000000000000000000000000000000000000000000000000000000000000000000000000000000000000000000000000000000000000000000000000000000000000000000000000000000000000000000000000000000000000000000000000000000000000000000000000000000000000000000000000000000000000000000000000000000000000000000000000000000000000000000000000000000000000000000000000000000000000000000000000000000000000000000000000000000000000000000000000000000000000000000000000000000000000000000000000000000",
      "type": "0x2",
      "transactionHash": "0xaf52fb754d70302af308ef79e9ad5b3a93b1cea501329bd1717cef06f98d116d",
      "transactionIndex": "0x62",
      "blockHash": "0x84a3ffd1d5a42537ba6040eec73c5e56797db0fa208cafe28becd049985fd1d3",
      "blockNumber": "0x94dae5",
      "gasUsed": "0xb4de",
      "effectiveGasPrice": "0xf4248",
      "from": "0x9c9bfa9207560e726bdf3577a5059dc3ddd05c94",
      "to": "0x7784ff80c9d58686956428352734a8a28637b84c",
      "contractAddress": null
    },
    {
      "status": "0x1",
      "cumulativeGasUsed": "0x1189ac3",
      "logs": [],
      "logsBloom": "0x00000000000000000000000000000000000000000000000000000000000000000000000000000000000000000000000000000000000000000000000000000000000000000000000000000000000000000000000000000000000000000000000000000000000000000000000000000000000000000000000000000000000000000000000000000000000000000000000000000000000000000000000000000000000000000000000000000000000000000000000000000000000000000000000000000000000000000000000000000000000000000000000000000000000000000000000000000000000000000000000000000000000000000000000000000000",
      "type": "0x2",
      "transactionHash": "0x83e76607eebbf46921e132f2e3bba2d3f92a1310fc88a90a75292a4d0576726f",
      "transactionIndex": "0x63",
      "blockHash": "0x84a3ffd1d5a42537ba6040eec73c5e56797db0fa208cafe28becd049985fd1d3",
      "blockNumber": "0x94dae5",
      "gasUsed": "0xb4d2",
      "effectiveGasPrice": "0xf4248",
      "from": "0x9c9bfa9207560e726bdf3577a5059dc3ddd05c94",
      "to": "0x7784ff80c9d58686956428352734a8a28637b84c",
      "contractAddress": null
    },
    {
      "status": "0x1",
      "cumulativeGasUsed": "0x1194fa1",
      "logs": [],
      "logsBloom": "0x00000000000000000000000000000000000000000000000000000000000000000000000000000000000000000000000000000000000000000000000000000000000000000000000000000000000000000000000000000000000000000000000000000000000000000000000000000000000000000000000000000000000000000000000000000000000000000000000000000000000000000000000000000000000000000000000000000000000000000000000000000000000000000000000000000000000000000000000000000000000000000000000000000000000000000000000000000000000000000000000000000000000000000000000000000000",
      "type": "0x2",
      "transactionHash": "0x4075dbfb261752b028d4abaa78446cf08ec84a28b347c517f4632f4c5c2a77fd",
      "transactionIndex": "0x64",
      "blockHash": "0x84a3ffd1d5a42537ba6040eec73c5e56797db0fa208cafe28becd049985fd1d3",
      "blockNumber": "0x94dae5",
      "gasUsed": "0xb4de",
      "effectiveGasPrice": "0xf4248",
      "from": "0x9c9bfa9207560e726bdf3577a5059dc3ddd05c94",
      "to": "0x7784ff80c9d58686956428352734a8a28637b84c",
      "contractAddress": null
    }
  ],
  "libraries": [],
  "pending": [],
  "returns": {},
  "timestamp": 1764708013089,
  "chain": 11155111,
  "commit": null
}