{
  "transactions": [
    {
      "hash": "0x71f57557773d09c8625cd41f75b20c6054342134d094345d8d6374ac63651b06",
      "transactionType": "CALL",
      "contractName": null,
      "contractAddress": "0xd05b7919189dfb09904e6183ff062942ede565b0",
      "function": "spin(uint256)",
      "arguments": [
        "0"
      ],
      "transaction": {
        "from": "0x9c9bfa9207560e726bdf3577a5059dc3ddd05c94",
        "to": "0xd05b7919189dfb09904e6183ff062942ede565b0",
        "gas": "0x2834d",
        "value": "0x38d7ea4c68000",
        "input": "0xa5b6ea8f0000000000000000000000000000000000000000000000000000000000000000",
        "nonce": "0xe6",
        "chainId": "0xaa36a7"
      },
      "additionalContracts": [],
      "isFixedGasLimit": false
    }
  ],
  "receipts": [
    {
      "status": "0x1",
      "cumulativeGasUsed": "0xcbf56a",
      "logs": [
        {
          "address": "0x8103b0a8a00be2ddc778e6e7eaa21791cd364625",
          "topics": [
            "0x63373d1c4696214b898952999c9aaec57dac1ee2723cec59bea6888f489a9772",
            "0x474e34a077df58807dbe9c96d3c009b23b3c6d0cce433e59bbf5b34f823bc56c",
            "0x00000000000000000000000000000000000000000000000000000000000030d2",
            "0x000000000000000000000000d05b7919189dfb09904e6183ff062942ede565b0"
          ],
          "data": "0x32beb9410bbe47c8dbd613cee4289f7350390f53758817147fea3f4f69cfbca5daba852f193b94dda80272bf1b213e4f56e853924dad174280a3b72930cbd077000000000000000000000000000000000000000000000000000000000000000300000000000000000000000000000000000000000000000000000000000186a00000000000000000000000000000000000000000000000000000000000000001",
          "blockHash": "0xf1fe86ee4470a6c90f708f8086dfc9918f7d9941d0659ab5ce835610b124bd00",
          "blockNumber": "0x94db4b",
          "blockTimestamp": "0x692f5374",
          "transactionHash": "0x71f57557773d09c8625cd41f75b20c6054342134d094345d8d6374ac63651b06",
          "transactionIndex": "0x5d",
          "logIndex": "0x102",
          "removed": false
        },
        {
          "address": "0xd05b7919189dfb09904e6183ff062942ede565b0",
          "topics": [
            "0xc70061a60d7cd9531b61a487ca9937c0c6b3b08dd63e9e6e07a35d4e43182a37",
            "0x32beb9410bbe47c8dbd613cee4289f7350390f53758817147fea3f4f69cfbca5",
            "0x0000000000000000000000009c9bfa9207560e726bdf3577a5059dc3ddd05c94"
          ],
          "data": "0x00000000000000000000000000000000000000000000000000038d7ea4c680000000000000000000000000000000000000000000000000000000000000000000",
          "blockHash": "0xf1fe86ee4470a6c90f708f8086dfc9918f7d9941d0659ab5ce835610b124bd00",
          "blockNumber": "0x94db4b",
          "blockTimestamp": "0x692f5374",
          "transactionHash": "0x71f57557773d09c8625cd41f75b20c6054342134d094345d8d6374ac63651b06",
          "transactionIndex": "0x5d",
          "logIndex": "0x103",
          "removed": false
        }
      ],
      "logsBloom": "0x0200100000000800000000000000000020000000000000000000000000000000080000000000000000000000080000000000000000000000000000000000000000000000000004000002000000001000000000000000000000000000000000000000000000000000000000000000000000000000000100000000000000000080000000000c000020000000000000000000410000080000000000000000000000000000000000000000000000000000000400000000000400000000000000000080000000000000000000004000002000000000000000000000000000000000100008000000000000000100000000000000000080000000000400000000000000",
      "type": "0x2",
      "transactionHash": "0x71f57557773d09c8625cd41f75b20c6054342134d094345d8d6374ac63651b06",
      "transactionIndex": "0x5d",
      "blockHash": "0xf1fe86ee4470a6c90f708f8086dfc9918f7d9941d0659ab5ce835610b124bd00",
      "blockNumber": "0x94db4b",
      "gasUsed": "0x1d1be",
      "effectiveGasPrice": "0xf4249",
      "from": "0x9c9bfa9207560e726bdf3577a5059dc3ddd05c94",
      "to": "0xd05b7919189dfb09904e6183ff062942ede565b0",
      "contractAddress": null
    }
  ],
  "libraries": [],
  "pending": [],
  "returns": {},
  "timestamp": 1764709236147,
  "chain": 11155111,
  "commit": null
}