{
  "transactions": [
    {
      "hash": "0x5e7f019cfc21ddd4fb1be6c1b0af3d35d364caad696277a67b3a774200086356",
      "transactionType": "CALL",
      "contractName": null,
      "contractAddress": "0xc532a74256d3db42d0bf7a0400fefdbad7694008",
      "function": "swapExactETHForTokensSupportingFeeOnTransferTokens(uint256,address[],address,uint256)",
      "arguments": [
        "0",
        "[0x7b79995e5f793A07Bc00c21412e50Ecae098E7f9, 0x7784fF80C9D58686956428352734A8a28637B84C]",
        "0x9c9BFa9207560E726bdf3577a5059dC3DDD05c94",
        "1764709068"
      ],
      "transaction": {
        "from": "0x9c9bfa9207560e726bdf3577a5059dc3ddd05c94",
        "to": "0xc532a74256d3db42d0bf7a0400fefdbad7694008",
        "gas": "0x2a6d1",
        "value": "0x38d7ea4c68000",
        "input": "0xb6f9de95000000000000000000000000000000000000000000000000000000000000000000000000000000000000000000000000000000000000000000000000000000800000000000000000000000009c9bfa9207560e726bdf3577a5059dc3ddd05c9400000000000000000000000000000000000000000000000000000000692f52cc00000000000000000000000000000000000000000000000000000000000000020000000000000000000000007b79995e5f793a07bc00c21412e50ecae098e7f90000000000000000000000007784ff80c9d58686956428352734a8a28637b84c",
        "nonce": "0xe0",
        "chainId": "0xaa36a7"
      },
      "additionalContracts": [],
      "isFixedGasLimit": false
    }
  ],
  "receipts": [
    {
      "status": "0x1",
      "cumulativeGasUsed": "0x843986",
      "logs": [
        {
          "address": "0x7b79995e5f793a07bc00c21412e50ecae098e7f9",
          "topics": [
            "0xe1fffcc4923d04b559f4d29a8bfc6cda04eb5b0d3c460751c2402c5c5cc9109c",
            "0x000000000000000000000000c532a74256d3db42d0bf7a0400fefdbad7694008"
          ],
          "data": "0x00000000000000000000000000000000000000000000000000038d7ea4c68000",
          "blockHash": "0xac1032fb1d1cfb29ac8eeed3191d2abc4f25371ef5f57c4bb9ce11d4a2d7541b",
          "blockNumber": "0x94db26",
          "blockTimestamp": "0x692f51b8",
          "transactionHash": "0x5e7f019cfc21ddd4fb1be6c1b0af3d35d364caad696277a67b3a774200086356",
          "transactionIndex": "0x4b",
          "logIndex": "0x9f",
          "removed": false
        },
        {
          "address": "0x7b79995e5f793a07bc00c21412e50ecae098e7f9",
          "topics": [
            "0xddf252ad1be2c89b69c2b068fc378daa952ba7f163c4a11628f55a4df523b3ef",
            "0x000000000000000000000000c532a74256d3db42d0bf7a0400fefdbad7694008",
            "0x0000000000000000000000007be0555d5e4fd0fb03cde50ca86aacfd4b1da947"
          ],
          "data": "0x00000000000000000000000000000000000000000000000000038d7ea4c68000",
          "blockHash": "0xac1032fb1d1cfb29ac8eeed3191d2abc4f25371ef5f57c4bb9ce11d4a2d7541b",
          "blockNumber": "0x94db26",
          "blockTimestamp": "0x692f51b8",
          "transactionHash": "0x5e7f019cfc21ddd4fb1be6c1b0af3d35d364caad696277a67b3a774200086356",
          "transactionIndex": "0x4b",
          "logIndex": "0xa0",
          "removed": false
        },
        {
          "address": "0x7784ff80c9d58686956428352734a8a28637b84c",
          "topics": [
            "0xddf252ad1be2c89b69c2b068fc378daa952ba7f163c4a11628f55a4df523b3ef",
            "0x0000000000000000000000007be0555d5e4fd0fb03cde50ca86aacfd4b1da947",
            "0x0000000000000000000000009c9bfa9207560e726bdf3577a5059dc3ddd05c94"
          ],
          "data": "0x0000000000000000000000000000000000000000000000d8a8f48d7203c371c9",
          "blockHash": "0xac1032fb1d1cfb29ac8eeed3191d2abc4f25371ef5f57c4bb9ce11d4a2d7541b",
          "blockNumber": "0x94db26",
          "blockTimestamp": "0x692f51b8",
          "transactionHash": "0x5e7f019cfc21ddd4fb1be6c1b0af3d35d364caad696277a67b3a774200086356",
          "transactionIndex": "0x4b",
          "logIndex": "0xa1",
          "removed": false
        },
        {
          "address": "0x7be0555d5e4fd0fb03cde50ca86aacfd4b1da947",
          "topics": [
            "0x1c411e9a96e071241c2f21f7726b17ae89e3cab4c78be50e062b03a9fffbbad1"
          ],
          "data": "0x0000000000000000000000000000000000000000000019775b866b3c1bfee219000000000000000000000000000000000000000000000000006e2255f4098000",
          "blockHash": "0xac1032fb1d1cfb29ac8eeed3191d2abc4f25371ef5f57c4bb9ce11d4a2d7541b",
          "blockNumber": "0x94db26",
          "blockTimestamp": "0x692f51b8",
          "transactionHash": "0x5e7f019cfc21ddd4fb1be6c1b0af3d35d364caad696277a67b3a774200086356",
          "transactionIndex": "0x4b",
          "logIndex": "0xa2",
          "removed": false
        },
        {
          "address": "0x7be0555d5e4fd0fb03cde50ca86aacfd4b1da947",
          "topics": [
            "0xd78ad95fa46c994b6551d0da85fc275fe613ce37657fb8d5e3d130840159d822",
            "0x000000000000000000000000c532a74256d3db42d0bf7a0400fefdbad7694008",
            "0x0000000000000000000000009c9bfa9207560e726bdf3577a5059dc3ddd05c94"
          ],
          "data": "0x000000000000000000000000000000000000000000000000000000000000000000000000000000000000000000000000000000000000000000038d7ea4c680000000000000000000000000000000000000000000000000d8a8f48d7203c371c90000000000000000000000000000000000000000000000000000000000000000",
          "blockHash": "0xac1032fb1d1cfb29ac8eeed3191d2abc4f25371ef5f57c4bb9ce11d4a2d7541b",
          "blockNumber": "0x94db26",
          "blockTimestamp": "0x692f51b8",
          "transactionHash": "0x5e7f019cfc21ddd4fb1be6c1b0af3d35d364caad696277a67b3a774200086356",
          "transactionIndex": "0x4b",
          "logIndex": "0xa3",
          "removed": false
        }
      ],
      "logsBloom": "0x00200000000000000000000080000000000000000000000080000004000800000000000000000000002000000000000000000000000000000000000000000000000000000000400000000008100010200000000000000000000000008000000000000000000000000000000000050000000000000000000000000010000000000000000000000000000000000000000000400001000000080000004000000000000100000000000000000000000000080000000000000000000000000000000000000102000000000002004000000000000000000000001000000000000000000000000000000000000000040000000000000000000000400000000000000004",
      "type": "0x2",
      "transactionHash": "0x5e7f019cfc21ddd4fb1be6c1b0af3d35d364caad696277a67b3a774200086356",
      "transactionIndex": "0x4b",
      "blockHash": "0xac1032fb1d1cfb29ac8eeed3191d2abc4f25371ef5f57c4bb9ce11d4a2d7541b",
      "blockNumber": "0x94db26",
      "gasUsed": "0x1eb74",
      "effectiveGasPrice": "0xf4249",
      "from": "0x9c9bfa9207560e726bdf3577a5059dc3ddd05c94",
      "to": "0xc532a74256d3db42d0bf7a0400fefdbad7694008",
      "contractAddress": null
    }
  ],
  "libraries": [],
  "pending": [],
  "returns": {},
  "timestamp": 1764708791702,
  "chain": 11155111,
  "commit": null
}