{
  "transactions": [
    {
      "hash": "0xce15c51c9d653bc3a79a407603939193e2b7ec4145b9541190ba247c1c9529a7",
      "transactionType": "CALL",
      "contractName": null,
      "contractAddress": "0x7784ff80c9d58686956428352734a8a28637b84c",
      "function": "setSwapEnabled(bool)",
      "arguments": [
        "false"
      ],
      "transaction": {
        "from": "0x9c9bfa9207560e726bdf3577a5059dc3ddd05c94",
        "to": "0x7784ff80c9d58686956428352734a8a28637b84c",
        "gas": "0x84b8",
        "value": "0x0",
        "input": "0xe01af92c0000000000000000000000000000000000000000000000000000000000000000",
        "nonce": "0xca",
        "chainId": "0xaa36a7"
      },
      "additionalContracts": [],
      "isFixedGasLimit": false
    },
    {
      "hash": "0x8b7af57c573a4d30cc3ff2c56265ee7ca173e48bcc2ab3078a5ff7d00334890a",
      "transactionType": "CALL",
      "contractName": null,
      "contractAddress": "0x7784ff80c9d58686956428352734a8a28637b84c",
      "function": "approve(address,uint256)",
      "arguments": [
        "0xC532a74256D3Db42D0Bf7a0400fEFDbad7694008",
        "100000000000000000000000"
      ],
      "transaction": {
        "from": "0x9c9bfa9207560e726bdf3577a5059dc3ddd05c94",
        "to": "0x7784ff80c9d58686956428352734a8a28637b84c",
        "gas": "0xf865",
        "value": "0x0",
        "input": "0x095ea7b3000000000000000000000000c532a74256d3db42d0bf7a0400fefdbad769400800000000000000000000000000000000000000000000152d02c7e14af6800000",
        "nonce": "0xcb",
        "chainId": "0xaa36a7"
      },
      "additionalContracts": [],
      "isFixedGasLimit": false
    },
    {
      "hash": "0xee582de2caad7e216e693264f80988d313c97295e4df09dbb94735aebab2ef08",
      "transactionType": "CALL",
      "contractName": null,
      "contractAddress": "0xc532a74256d3db42d0bf7a0400fefdbad7694008",
      "function": "addLiquidityETH(address,uint256,uint256,uint256,address,uint256)",
      "arguments": [
        "0x7784fF80C9D58686956428352734A8a28637B84C",
        "100000000000000000000000",
        "0",
        "0",
        "0x9c9BFa9207560E726bdf3577a5059dC3DDD05c94",
        "1764707952"
      ],
      "transaction": {
        "from": "0x9c9bfa9207560e726bdf3577a5059dc3ddd05c94",
        "to": "0xc532a74256d3db42d0bf7a0400fefdbad7694008",
        "gas": "0x4eccd",
        "value": "0x2386f26fc10000",
        "input": "0xf305d7190000000000000000000000007784ff80c9d58686956428352734a8a28637b84c00000000000000000000000000000000000000000000152d02c7e14af6800000000000000000000000000000000000000000000000000000000000000000000000000000000000000000000000000000000000000000000000000000000000000000000000000000000000009c9bfa9207560e726bdf3577a5059dc3ddd05c9400000000000000000000000000000000000000000000000000000000692f4e70",
        "nonce": "0xcc",
        "chainId": "0xaa36a7"
      },
      "additionalContracts": [],
      "isFixedGasLimit": false
    },
    {
      "hash": "0x5f6ca149a1ab91d2c33ebe34894cb1d1922050a7066fba4ca63961de08c4a3f8",
      "transactionType": "CALL",
      "contractName": null,
      "contractAddress": "0x7784ff80c9d58686956428352734a8a28637b84c",
      "function": "setSwapEnabled(bool)",
      "arguments": [
        "true"
      ],
      "transaction": {
        "from": "0x9c9bfa9207560e726bdf3577a5059dc3ddd05c94",
        "to": "0x7784ff80c9d58686956428352734a8a28637b84c",
        "gas": "0xfaf2",
        "value": "0x0",
        "input": "0xe01af92c0000000000000000000000000000000000000000000000000000000000000001",
        "nonce": "0xcd",
        "chainId": "0xaa36a7"
      },
      "additionalContracts": [],
      "isFixedGasLimit": false
    },
    {
      "hash": "0x7632c97c6cdb2fee2af651fad155ee7cddfed5c102d2f724de7cd13c45603156",
      "transactionType": "CALL",
      "contractName": null,
      "contractAddress": "0x8103b0a8a00be2ddc778e6e7eaa21791cd364625",
      "function": "addConsumer(uint64,address)",
      "arguments": [
        "12498",
        "0xd05b7919189DfB09904E6183ff062942eDE565B0"
      ],
      "transaction": {
        "from": "0x9c9bfa9207560e726bdf3577a5059dc3ddd05c94",
        "to": "0x8103b0a8a00be2ddc778e6e7eaa21791cd364625",
        "gas": "0x1a446",
        "value": "0x0",
        "input": "0x7341c10c00000000000000000000000000000000000000000000000000000000000030d2000000000000000000000000d05b7919189dfb09904e6183ff062942ede565b0",
        "nonce": "0xce",
        "chainId": "0xaa36a7"
      },
      "additionalContracts": [],
      "isFixedGasLimit": false
    },
    {
      "hash": "0x2ac6f5d887dff84c8cadec310b9fa7754b2f9b2ef94d7a7902ecd335727bfd55",
      "transactionType": "CALL",
      "contractName": null,
      "contractAddress": "0x8103b0a8a00be2ddc778e6e7eaa21791cd364625",
      "function": "addConsumer(uint64,address)",
      "arguments": [
        "12498",
        "0xb6C9F61d81C6c6A7827B255d963B43a107f4754b"
      ],
      "transaction": {
        "from": "0x9c9bfa9207560e726bdf3577a5059dc3ddd05c94",
        "to": "0x8103b0a8a00be2ddc778e6e7eaa21791cd364625",
        "gas": "0x1a446",
        "value": "0x0",
        "input": "0x7341c10c00000000000000000000000000000000000000000000000000000000000030d2000000000000000000000000b6c9f61d81c6c6a7827b255d963b43a107f4754b",
        "nonce": "0xcf",
        "chainId": "0xaa36a7"
      },
      "additionalContracts": [],
      "isFixedGasLimit": false
    }
  ],
  "receipts": [
    {
      "status": "0x1",
      "cumulativeGasUsed": "0x7ce4f2",
      "logs": [],
      "logsBloom": "0x00000000000000000000000000000000000000000000000000000000000000000000000000000000000000000000000000000000000000000000000000000000000000000000000000000000000000000000000000000000000000000000000000000000000000000000000000000000000000000000000000000000000000000000000000000000000000000000000000000000000000000000000000000000000000000000000000000000000000000000000000000000000000000000000000000000000000000000000000000000000000000000000000000000000000000000000000000000000000000000000000000000000000000000000000000000",
      "type": "0x2",
      "transactionHash": "0xce15c51c9d653bc3a79a407603939193e2b7ec4145b9541190ba247c1c9529a7",
      "transactionIndex": "0x65",
      "blockHash": "0xb6494a088b3e33928f543cc9d6dd88f58a45f80240ada2e793cf56ed97deed00",
      "blockNumber": "0x94dac8",
      "gasUsed": "0x6017",
      "effectiveGasPrice": "0xf4248",
      "from": "0x9c9bfa9207560e726bdf3577a5059dc3ddd05c94",
      "to": "0x7784ff80c9d58686956428352734a8a28637b84c",
      "contractAddress": null
    },
    {
      "status": "0x1",
      "cumulativeGasUsed": "0x7d98c8",
      "logs": [
        {
          "address": "0x7784ff80c9d58686956428352734a8a28637b84c",
          "topics": [
            "0x8c5be1e5ebec7d5bd14f71427d1e84f3dd0314c0f7b2291e5b200ac8c7c3b925",
            "0x0000000000000000000000009c9bfa9207560e726bdf3577a5059dc3ddd05c94",
            "0x000000000000000000000000c532a74256d3db42d0bf7a0400fefdbad7694008"
          ],
          "data": "0x00000000000000000000000000000000000000000000152d02c7e14af6800000",
          "blockHash": "0xb6494a088b3e33928f543cc9d6dd88f58a45f80240ada2e793cf56ed97deed00",
          "blockNumber": "0x94dac8",
          "blockTimestamp": "0x692f4d50",
          "transactionHash": "0x8b7af57c573a4d30cc3ff2c56265ee7ca173e48bcc2ab3078a5ff7d00334890a",
          "transactionIndex": "0x66",
          "logIndex": "0x7f",
          "removed": false
        }
      ],
      "logsBloom": "0x00000000000000000000000000000000000000000000000080000000000800000000000000000000000000000000000000000000000000000000000000200000000000000000000000000000000010000000000000000000000000000000000000000000000000000000000000040000000000000000000000000000000000000000000000000000000000000000000000400000000000000000000000000000020100000000000000000000000000000000000000000000000000000000000000000100000000000000004000000000000000000000000000000000000000000010000000000000000000040000000000000000000000000000000000000000",
      "type": "0x2",
      "transactionHash": "0x8b7af57c573a4d30cc3ff2c56265ee7ca173e48bcc2ab3078a5ff7d00334890a",
      "transactionIndex": "0x66",
      "blockHash": "0xb6494a088b3e33928f543cc9d6dd88f58a45f80240ada2e793cf56ed97deed00",
      "blockNumber": "0x94dac8",
      "gasUsed": "0xb3d6",
      "effectiveGasPrice": "0xf4248",
      "from": "0x9c9bfa9207560e726bdf3577a5059dc3ddd05c94",
      "to": "0x7784ff80c9d58686956428352734a8a28637b84c",
      "contractAddress": null
    },
    {
      "status": "0x1",
      "cumulativeGasUsed": "0x812995",
      "logs": [
        {
          "address": "0x7784ff80c9d58686956428352734a8a28637b84c",
          "topics": [
            "0xddf252ad1be2c89b69c2b068fc378daa952ba7f163c4a11628f55a4df523b3ef",
            "0x0000000000000000000000009c9bfa9207560e726bdf3577a5059dc3ddd05c94",
            "0x0000000000000000000000007be0555d5e4fd0fb03cde50ca86aacfd4b1da947"
          ],
          "data": "0x0000000000000000000000000000000000000000000012ad54e2785f4d200000",
          "blockHash": "0xb6494a088b3e33928f543cc9d6dd88f58a45f80240ada2e793cf56ed97deed00",
          "blockNumber": "0x94dac8",
          "blockTimestamp": "0x692f4d50",
          "transactionHash": "0xee582de2caad7e216e693264f80988d313c97295e4df09dbb94735aebab2ef08",
          "transactionIndex": "0x67",
          "logIndex": "0x80",
          "removed": false
        },
        {
          "address": "0x7784ff80c9d58686956428352734a8a28637b84c",
          "topics": [
            "0xddf252ad1be2c89b69c2b068fc378daa952ba7f163c4a11628f55a4df523b3ef",
            "0x0000000000000000000000009c9bfa9207560e726bdf3577a5059dc3ddd05c94",
            "0x0000000000000000000000007784ff80c9d58686956428352734a8a28637b84c"
          ],
          "data": "0x00000000000000000000000000000000000000000000021342520d5fec200000",
          "blockHash": "0xb6494a088b3e33928f543cc9d6dd88f58a45f80240ada2e793cf56ed97deed00",
          "blockNumber": "0x94dac8",
          "blockTimestamp": "0x692f4d50",
          "transactionHash": "0xee582de2caad7e216e693264f80988d313c97295e4df09dbb94735aebab2ef08",
          "transactionIndex": "0x67",
          "logIndex": "0x81",
          "removed": false
        },
        {
          "address": "0x7b79995e5f793a07bc00c21412e50ecae098e7f9",
          "topics": [
            "0xe1fffcc4923d04b559f4d29a8bfc6cda04eb5b0d3c460751c2402c5c5cc9109c",
            "0x000000000000000000000000c532a74256d3db42d0bf7a0400fefdbad7694008"
          ],
          "data": "0x000000000000000000000000000000000000000000000000002386f26fc10000",
          "blockHash": "0xb6494a088b3e33928f543cc9d6dd88f58a45f80240ada2e793cf56ed97deed00",
          "blockNumber": "0x94dac8",
          "blockTimestamp": "0x692f4d50",
          "transactionHash": "0xee582de2caad7e216e693264f80988d313c97295e4df09dbb94735aebab2ef08",
          "transactionIndex": "0x67",
          "logIndex": "0x82",
          "removed": false
        },
        {
          "address": "0x7b79995e5f793a07bc00c21412e50ecae098e7f9",
          "topics": [
            "0xddf252ad1be2c89b69c2b068fc378daa952ba7f163c4a11628f55a4df523b3ef",
            "0x000000000000000000000000c532a74256d3db42d0bf7a0400fefdbad7694008",
            "0x0000000000000000000000007be0555d5e4fd0fb03cde50ca86aacfd4b1da947"
          ],
          "data": "0x000000000000000000000000000000000000000000000000002386f26fc10000",
          "blockHash": "0xb6494a088b3e33928f543cc9d6dd88f58a45f80240ada2e793cf56ed97deed00",
          "blockNumber": "0x94dac8",
          "blockTimestamp": "0x692f4d50",
          "transactionHash": "0xee582de2caad7e216e693264f80988d313c97295e4df09dbb94735aebab2ef08",
          "transactionIndex": "0x67",
          "logIndex": "0x83",
          "removed": false
        },
        {
          "address": "0x7be0555d5e4fd0fb03cde50ca86aacfd4b1da947",
          "topics": [
            "0xddf252ad1be2c89b69c2b068fc378daa952ba7f163c4a11628f55a4df523b3ef",
            "0x0000000000000000000000000000000000000000000000000000000000000000",
            "0x0000000000000000000000009c9bfa9207560e726bdf3577a5059dc3ddd05c94"
          ],
          "data": "0x00000000000000000000000000000000000000000000000186ffc6ed55839e1e",
          "blockHash": "0xb6494a088b3e33928f543cc9d6dd88f58a45f80240ada2e793cf56ed97deed00",
          "blockNumber": "0x94dac8",
          "blockTimestamp": "0x692f4d50",
          "transactionHash": "0xee582de2caad7e216e693264f80988d313c97295e4df09dbb94735aebab2ef08",
          "transactionIndex": "0x67",
          "logIndex": "0x84",
          "removed": false
        },
        {
          "address": "0x7be0555d5e4fd0fb03cde50ca86aacfd4b1da947",
          "topics": [
            "0x1c411e9a96e071241c2f21f7726b17ae89e3cab4c78be50e062b03a9fffbbad1"
          ],
          "data": "0x00000000000000000000000000000000000000000000276dec16fe1e8660000000000000000000000000000000000000000000000000000000470de4df820000",
          "blockHash": "0xb6494a088b3e33928f543cc9d6dd88f58a45f80240ada2e793cf56ed97deed00",
          "blockNumber": "0x94dac8",
          "blockTimestamp": "0x692f4d50",
          "transactionHash": "0xee582de2caad7e216e693264f80988d313c97295e4df09dbb94735aebab2ef08",
          "transactionIndex": "0x67",
          "logIndex": "0x85",
          "removed": false
        },
        {
          "address": "0x7be0555d5e4fd0fb03cde50ca86aacfd4b1da947",
          "topics": [
            "0x4c209b5fc8ad50758f13e2e1088ba56a560dff690a1c6fef26394f4c03821c4f",
            "0x000000000000000000000000c532a74256d3db42d0bf7a0400fefdbad7694008"
          ],
          "data": "0x0000000000000000000000000000000000000000000012ad54e2785f4d200000000000000000000000000000000000000000000000000000002386f26fc10000",
          "blockHash": "0xb6494a088b3e33928f543cc9d6dd88f58a45f80240ada2e793cf56ed97deed00",
          "blockNumber": "0x94dac8",
          "blockTimestamp": "0x692f4d50",
          "transactionHash": "0xee582de2caad7e216e693264f80988d313c97295e4df09dbb94735aebab2ef08",
          "transactionIndex": "0x67",
          "logIndex": "0x86",
          "removed": false
        }
      ],
      "logsBloom": "0x00000000000000000000000080000000000000000000000080000004000801000000000000000000002000000000000000000000000000000000000000000000000000000000400000000008100010000000000000000000000000008000000000000000020000000000000000050800000000000008000000000010000000000000000000000000000000000008000000400001000000080000000000000000000100000000000000000000000000080000000000000000000000000000000000000102040000000002004000020000000000000000001000000000000020000000000000000000000000040000000000000000000000420000000000000004",
      "type": "0x2",
      "transactionHash": "0xee582de2caad7e216e693264f80988d313c97295e4df09dbb94735aebab2ef08",
      "transactionIndex": "0x67",
      "blockHash": "0xb6494a088b3e33928f543cc9d6dd88f58a45f80240ada2e793cf56ed97deed00",
      "blockNumber": "0x94dac8",
      "gasUsed": "0x390cd",
      "effectiveGasPrice": "0xf4248",
      "from": "0x9c9bfa9207560e726bdf3577a5059dc3ddd05c94",
      "to": "0xc532a74256d3db42d0bf7a0400fefdbad7694008",
      "contractAddress": null
    },
    {
      "status": "0x1",
      "cumulativeGasUsed": "0x81df44",
      "logs": [],
      "logsBloom": "0x00000000000000000000000000000000000000000000000000000000000000000000000000000000000000000000000000000000000000000000000000000000000000000000000000000000000000000000000000000000000000000000000000000000000000000000000000000000000000000000000000000000000000000000000000000000000000000000000000000000000000000000000000000000000000000000000000000000000000000000000000000000000000000000000000000000000000000000000000000000000000000000000000000000000000000000000000000000000000000000000000000000000000000000000000000000",
      "type": "0x2",
      "transactionHash": "0x5f6ca149a1ab91d2c33ebe34894cb1d1922050a7066fba4ca63961de08c4a3f8",
      "transactionIndex": "0x68",
      "blockHash": "0xb6494a088b3e33928f543cc9d6dd88f58a45f80240ada2e793cf56ed97deed00",
      "blockNumber": "0x94dac8",
      "gasUsed": "0xb5af",
      "effectiveGasPrice": "0xf4248",
      "from": "0x9c9bfa9207560e726bdf3577a5059dc3ddd05c94",
      "to": "0x7784ff80c9d58686956428352734a8a28637b84c",
      "contractAddress": null
    },
    {
      "status": "0x1",
      "cumulativeGasUsed": "0x830f8a",
      "logs": [
        {
          "address": "0x8103b0a8a00be2ddc778e6e7eaa21791cd364625",
          "topics": [
            "0x43dc749a04ac8fb825cbd514f7c0e13f13bc6f2ee66043b76629d51776cff8e0",
            "0x00000000000000000000000000000000000000000000000000000000000030d2"
          ],
          "data": "0x000000000000000000000000d05b7919189dfb09904e6183ff062942ede565b0",
          "blockHash": "0xb6494a088b3e33928f543cc9d6dd88f58a45f80240ada2e793cf56ed97deed00",
          "blockNumber": "0x94dac8",
          "blockTimestamp": "0x692f4d50",
          "transactionHash": "0x7632c97c6cdb2fee2af651fad155ee7cddfed5c102d2f724de7cd13c45603156",
          "transactionIndex": "0x69",
          "logIndex": "0x87",
          "removed": false
        }
      ],
      "logsBloom": "0x0000100000000000000000000000000000000000000000000000000000000000000000000000000000000000000000000000000000000000000000000000000000000000000000000000000000000000000000000000000000000000000000000000000000008000000000000000000000000000000000000000000000000000000000000c000020000000000000000000000000080000000000000000000000000000000000000000000080000000000400000000000000000000000000000000000000000000000000000000000000000000000000000000020000000000000000000000000000000000000000000000000000000000000000000000000000",
      "type": "0x2",
      "transactionHash": "0x7632c97c6cdb2fee2af651fad155ee7cddfed5c102d2f724de7cd13c45603156",
      "transactionIndex": "0x69",
      "blockHash": "0xb6494a088b3e33928f543cc9d6dd88f58a45f80240ada2e793cf56ed97deed00",
      "blockNumber": "0x94dac8",
      "gasUsed": "0x13046",
      "effectiveGasPrice": "0xf4248",
      "from": "0x9c9bfa9207560e726bdf3577a5059dc3ddd05c94",
      "to": "0x8103b0a8a00be2ddc778e6e7eaa21791cd364625",
      "contractAddress": null
    },
    {
      "status": "0x1",
      "cumulativeGasUsed": "0x843fd0",
      "logs": [
        {
          "address": "0x8103b0a8a00be2ddc778e6e7eaa21791cd364625",
          "topics": [
            "0x43dc749a04ac8fb825cbd514f7c0e13f13bc6f2ee66043b76629d51776cff8e0",
            "0x00000000000000000000000000000000000000000000000000000000000030d2"
          ],
          "data": "0x000000000000000000000000b6c9f61d81c6c6a7827b255d963b43a107f4754b",
          "blockHash": "0xb6494a088b3e33928f543cc9d6dd88f58a45f80240ada2e793cf56ed97deed00",
          "blockNumber": "0x94dac8",
          "blockTimestamp": "0x692f4d50",
          "transactionHash": "0x2ac6f5d887dff84c8cadec310b9fa7754b2f9b2ef94d7a7902ecd335727bfd55",
          "transactionIndex": "0x6a",
          "logIndex": "0x88",
          "removed": false
        }
      ],
      "logsBloom": "0x0000100000000000000000000000000000000000000000000000000000000000000000000000000000000000000000000000000000000000000000000000000000000000000000000000000000000000000000000000000000000000000000000000000000008000000000000000000000000000000000000000000000000000000000000c000020000000000000000000000000080000000000000000000000000000000000000000000080000000000400000000000000000000000000000000000000000000000000000000000000000000000000000000020000000000000000000000000000000000000000000000000000000000000000000000000000",
      "type": "0x2",
      "transactionHash": "0x2ac6f5d887dff84c8cadec310b9fa7754b2f9b2ef94d7a7902ecd335727bfd55",
      "transactionIndex": "0x6a",
      "blockHash": "0xb6494a088b3e33928f543cc9d6dd88f58a45f80240ada2e793cf56ed97deed00",
      "blockNumber": "0x94dac8",
      "gasUsed": "0x13046",
      "effectiveGasPrice": "0xf4248",
      "from": "0x9c9bfa9207560e726bdf3577a5059dc3ddd05c94",
      "to": "0x8103b0a8a00be2ddc778e6e7eaa21791cd364625",
      "contractAddress": null
    }
  ],
  "libraries": [],
  "pending": [],
  "returns": {},
  "timestamp": 1764707666191,
  "chain": 11155111,
  "commit": null
}